:020000040800F2
:1000000000000220B9020008C1020008C502000871
:10001000390300083D0300088503000800000000C4
:10002000000000000000000000000000D1000108F6
:10003000D103000800000000B10101081502010809
:10004000E9030008E9030008E9030008E9030008E0
:10005000E9030008E9030008E9030008E9030008D0
:10006000E9030008E9030008E9030008E9030008C0
:10007000E9030008E9030008E9030008E9030008B0
:10008000E9030008E9030008E9030008E9030008A0
:10009000E9030008E9030008E9030008E903000890
:1000A000E9030008D5420008E9030008E903000855
:1000B000E9030008E9030008E9030008E903000870
:1000C000E9030008E9030008E9030008E903000860
:1000D000E9030008E9030008E9030008E903000850
:1000E000E9030008E9030008E9030008E903000840
:1000F000E9030008E9030008E9030008E903000830
:10010000E9030008E9030008E9030008E90300081F
:10011000E9030008E9030008A9410008E903000811
:10012000E9030008E9030008E9030008E9030008FF
:10013000E90300080000000000000000E9030008D7
:10014000E9030008E9030008E9030008E9030008DF
:10015000E9030008E9030008E9030008E9030008CF
:10016000E9030008E9030008E9030008E9030008BF
:10017000E9030008E9030008000000000000000097
:10018000E9030008E903000800B583B003F0A2FE0C
:10019000384B394A1360394A136039490CE00A6810
:1001A0004B6801F10C04886803E01168196004339E
:1001B00004329842F9D82146324B9942EFD32E4B64
:1001C0001A68314B9A4204D12C4B1A682F4B9A4231
:1001D00000D0FEE7274B2E4A13602E4A13602E4BA9
:1001E0000AE0194651F8082B5B6802E00020106015
:1001F00004329A42FAD30B46284A9342F1D3244B55
:100200001B6813B9234B1B6803B1FEE70FF0E4FC36
:10021000694601A803F0D4FD214C224B1C1BA410FD
:10022000002504E01E4B53F8253098470135AC42B9
:10023000F8DC1D4C1D4B1C1BA410002504E01A4BC0
:1002400053F8253098470135AC42F8DC0099019805
:100250000FF0CAFC0546164C164B1C1BA41004E0FC
:10026000013C134B53F824309847002CF8DC284607
:1002700003F078FDBABADECA0000002014010020A5
:10028000EC030008040400087856341232547698BF
:10029000180100205CE50120040400081404000893
:1002A00014040008140400081404000814040008CE
:1002B000140400081404000808B5FFF765FF00BF28
:1002C00000BEFEE71EF0040F0CBFEFF30880EFF353
:1002D00009807146414A10472DE9F04182B0044639
:1002E0008846134B5E6B9F6B9D6A1B6B13F0020F6E
:1002F0000DD00F4BDB6A002B09DA4BF6AB6103F034
:1003000073FE20B14FF00042094BDA620CE009485D
:1003100003F082FDCDF800803B4632462946204658
:1003200003F0EAFD00BEFEE702B0BDE8F08100BFC9
:1003300000ED00E0EC69010800BEFEE71EF0040FCE
:100340000CBFEFF30880EFF309807146244A104791
:100350002DE9F04182B004468846084B5E6B9F6BE6
:100360009D6A074803F058FDCDF800803B463246B1
:100370002946204603F0C0FD00BEFEE700ED00E088
:10038000FC6901081EF0040F0CBFEFF30880EFF3C7
:1003900009807146134A10472DE9F04182B00446A6
:1003A0008846084B5E6B9F6B9D6A074803F034FDDF
:1003B000CDF800803B4632462946204603F09CFD9E
:1003C00000BEFEE700ED00E0086A010800BEFEE79F
:1003D00000BEFEE700BEFEE770470000D90200083D
:0C03E000510300089903000800BEFEE76E
:1003EC00E47501080000002018010020E4750108E4
:1003FC0000000010000000101801002060E5012032
:08040C000000001000000010C8
:1004400008B50B4B1A6842F400721A601A6842F43D
:1004500080621A601A6842F480721A60032000F009
:1004600025F80F2003F046FE0FF07AFC002008BDAF
:10047000003C0240024A136801331360704700BF1A
:100480001C010020014B1868704700BF1C010020B0
:1004900010B582B00190FFF7F5FF0446FFF7F2FFB9
:1004A000001B019B9842F9D302B010BD10B5044661
:1004B000C31E042B03D9A421094803F0A3FC094A55
:1004C000D36823F4E0631B041B0C240204F4E064EF
:1004D000234343F0BF6343F40033D36010BD00BF38
:1004E0002466010800ED00E070B504460E4615468E
:1004F0000F2A03D9BC211A4803F084FC0F2E03D91C
:10050000BD21174803F07EFC164BDA68C2F30222C5
:10051000C2F10701042928BF0421131D062B01D9AC
:10052000033A00E00022012303FA01F101393140CE
:10053000914003FA02F2013A2A400A43002C06DAFB
:1005400004F00F041201D2B2074B1A5570BD12010C
:10055000D2B204F1604404F5614484F8002370BD14
:100560002466010800ED00E014ED00E010B5041E63
:1005700003DAD021064803F045FC620904F01F04A9
:10058000012303FA04F4034B43F8224010BD00BFDB
:100590002466010800E100E00138B0F1807F0AD252
:1005A000064B5860F021064A82F82310002098601C
:1005B00007221A6070470120704700BF10E000E07A
:1005C00000ED00E010B50446042805D020B140F24B
:1005D000B311084803F016FC042C05D1064A136831
:1005E00043F00403136010BD034A136823F00403AF
:1005F000136010BD2466010810E000E030B4056807
:100600002C6824F480242C60046863608368402B89
:1006100004D103689A600368D96003E003689960B5
:100620000368DA6030BC70470268D3B2103B0B49F4
:10063000A1FB03131B090A49C95CC165032B06D939
:1006400022F47F7222F003020432826504E022F475
:100650007F7222F003028265806D7047ABAAAAAA5E
:1006600088660108836A8269BAB9012B09D013B17F
:10067000022B0CD034E0C36A13F0807F32D100200B
:100680007047C36AB3F1C07F2ED000207047C36AA1
:1006900013F0807F2AD100207047B2F5005F13D19C
:1006A000032B03D8DFE803F02404240A002070475A
:1006B000C36A13F0807F1DD100207047C36AB3F175
:1006C000C07F19D000207047022B17D9032B01D00F
:1006D00000207047C36A13F0807F11D1002070475B
:1006E00000207047012070470120704701207047AB
:1006F000012070470120704701207047012070479A
:100700000120704770B50446FFF7BCFE002C00F0D6
:10071000298105462368944A934231D01832934286
:100720002ED0183293422BD01832934228D0183250
:10073000934225D01832934222D0183293421FD0D0
:10074000183293421CD002F55672934218D01832D8
:10075000934215D01832934212D0183293420FD0E0
:10076000183293420CD01832934209D01832934277
:1007700006D01832934203D0C9217C4803F042FBD3
:100780006368C3B1B3F1007F15D0B3F1806F12D0AD
:10079000B3F1C06F0FD0B3F1006F0CD0B3F1206F85
:1007A00009D0B3F1406F06D0B3F1606F03D0CA2116
:1007B0006E4803F027FBA3683BB1402B05D0802B8C
:1007C00003D0CB21694803F01DFBE368B3F5007F3C
:1007D00004D01BB1CC21654803F014FB2369B3F5A9
:1007E000806F04D01BB1CD21604803F00BFB63691F
:1007F0004BB1B3F5006F06D0B3F5805F03D0CE21C7
:100800005A4803F0FFFAA3694BB1B3F5005F06D075
:10081000B3F5804F03D0CF21544803F0F3FAE369D6
:1008200043B1B3F5807F05D0202B03D0D0214F48B2
:1008300003F0E8FA236A63B1B3F5803F09D0B3F55A
:10084000003F06D0B3F5403F03D0D121474803F025
:10085000D9FA636A2BB1042B03D0D221434803F0A9
:10086000D1FA636A23B3A36A032B03D9D7213F4884
:1008700003F0C8FAE36A63B1B3F5000F09D0B3F12E
:10088000807F06D0B3F1C07F03D0D821374803F072
:10089000B9FA236B63B1B3F5001F09D0B3F5800F2C
:1008A00006D0B3F5C00F03D0D921304803F0AAFA1F
:1008B000002384F83430022384F83530226813682A
:1008C00023F0010313600AE0FFF7DCFD401B05285D
:1008D00005D920236365032084F8350070BD2368A3
:1008E0001A6812F0010FEFD11A68214810406168B0
:1008F000A2681143E26811432269114362691143FE
:10090000A2691143E2690A43216A114340EA0102E4
:10091000616A042903D1E06A216B01430A431A602A
:100920002668756925F00705636A1D43042B0BD102
:10093000A36A1D432046FFF795FE28B14023636557
:10094000012084F8350070BD75612046FFF76CFE0C
:10095000E26D3F239340836000206065012384F8AB
:10096000353070BD012070BD10600240586601082E
:100970003F8010F02DE9F04104460F4690461E4698
:100980005A1E4FF6FE739A4204D94FF4CF711548A0
:1009900003F038FA94F83430012B20D0012384F886
:1009A000343094F83530DBB2012B12D1022384F8B5
:1009B0003530002565653346424639462046FFF707
:1009C0001DFE2268136843F0010313602846BDE84A
:1009D000F081002384F834300220BDE8F081022049
:1009E000BDE8F081586601082DE9F04782B08046E5
:1009F0000F46A14B984223D003F5806398421FD045
:100A000003F5806398421BD003F58063984217D0AA
:100A100003F58063984213D003F5806398420FD0AA
:100A200003F5806398420BD003F58063984207D0AA
:100A300003F58063984203D0C521904803F0E2F9A2
:100A40003B881BB9C6218D4803F0DCF97B68012B7C
:100A500022D9112B20D0022B1ED0122B1CD0884A59
:100A6000934219D002F58012934215D002F58012FC
:100A7000934211D0A2F5F81293420DD002F58012E4
:100A8000934209D002F58012934205D0032B03D084
:100A9000C7217A4803F0B6F9BB68022B03D9C821F5
:100AA000764803F0AFF9002526E10124AC403E680A
:100AB0002640B44240F01F817B68022B01D0122BEC
:100AC00045D13B699BB3092B31D083B37BB373B35F
:100AD0006BB3012B2BD02AD0022B28D027D026D0C5
:100AE000032B24D0042B22D021D020D0052B1ED0C4
:100AF0001DD0092B1BD0062B19D0092B17D0072B83
:100B000015D014D013D0082B11D010D00FD0092B32
:100B10000DD00CD00A2B0AD009D00C2B07D006D050
:100B200005D00F2B03D0D921544803F06BF9EA0804
:100B3000083258F8220005F0070399000F238B4074
:100B400020EA03003B698B40034348F82230D8F881
:100B500000304FEA450A4FF0030909FA0AF96FEA33
:100B6000090903EA09027B6803F0030303FA0AF3A5
:100B70001343C8F800307B685A1E012A03D9112B91
:100B800001D0122B1BD1FB68032B03D9EC213B486E
:100B900003F038F9D8F8083009EA0302FB6803FAD1
:100BA0000AF31343C8F80830D8F8043023EA0404E1
:100BB0007B68C3F30013AB401C43C8F80440D8F86B
:100BC0000C3009EA0309BB6803FA0AF349EA030394
:100BD000C8F80C307B6813F0805F00F08C80002335
:100BE0000193284B5A6C42F480425A645B6C03F4C4
:100BF00080430193019BA9088A1C234B53F82200D0
:100C000005F003039B000F229A4020EA02001A4AD3
:100C1000904521D002F5806290451FD002F5806298
:100C200090451DD002F5806290451BD002F5806290
:100C3000904519D002F58062904517D002F5806288
:100C4000904515D002F58062904513D002F5806280
:100C500090451BD108221AE0002218E0012216E07C
:100C6000022214E0032212E0042210E005220EE02A
:100C700006220CE007220AE000000240906601080C
:100C8000000011100038024000380140092202FA29
:100C900003F3034302311B4A42F821301A4B1A680E
:100CA000F34302EA0301786810F4803F01D046EA7A
:100CB0000201154A1160526803EA0201786810F4D3
:100CC000003F01D046EA02010F4A5160926803EAF0
:100CD0000201786810F4801F01D046EA02010A4A36
:100CE0009160D2681340796811F4001F01D046EA80
:100CF0000203054AD36001350F2D7FF6D6AE02B050
:100D0000BDE8F08700380140003C014070B5064660
:100D100015460C4621B940F2B111084803F072F8AB
:100D2000012D04D94FF4D971044803F06BF80DB1CB
:100D3000B46170BD2404B46170BD00BF9066010849
:100D400003685A6912F4806F0DD06FF480625A61A3
:100D50000423036400230363202280F83D2080F8ED
:100D60003C30012070470020704700BFF8B50646B0
:100D70000C4617461D4612E0B5F1FF3F0FD02DB1CE
:100D8000FFF780FB069BC01A854208D2002333631D
:100D9000202286F83D2086F83C300320F8BDC4F3BD
:100DA0000743012B08D133685B6924EA03039BB234
:100DB000B3FA83F35B0907E033689B6924EA030312
:100DC0009BB2B3FA83F35B09BB42D5D00020F8BDD8
:100DD000F8B504460D4616461F4629E023685A69B1
:100DE00012F4806F12D01A6842F400721A602368FD
:100DF0006FF480625A61042323640023236320225A
:100E000084F83D2084F83C300120F8BDB6F1FF3F66
:100E10000ED026B1FFF736FBC01B864208D2002356
:100E20002363202284F83D2084F83C300320F8BD61
:100E3000C5F30743012B08D123685B6925EA030347
:100E40009BB2003318BF012307E023689B6925EAA2
:100E500003039BB2003318BF0123002BBED1002037
:100E6000F8BD00BF70B504460D46164619E0204691
:100E7000FFF766FFE0B9B5F1FF3F12D025B1FFF7EC
:100E800001FB801B85420CD2236C43F020032364BA
:100E900000232363202284F83D2084F83C30032083
:100EA00070BD23685B6913F0800FE0D0002070BD37
:100EB000012070BD2DE9F04184B0054688461646F4
:100EC0001F460B9C0268136843F480731360009400
:100ED0000A9B00224FF00111FFF748FF002846D17E
:100EE0002A6808F0FE03136123460A9A254928461A
:100EF000FFF76EFF20B12B6C042B3AD101233DE0AC
:100F0000002303932B685A6903929B690393039B05
:100F100022460A992846FFF7A5FF034648B12B6CE5
:100F2000042B28D12A68136843F40073136001234B
:100F300024E0012F03D12A68F6B216611EE02B6867
:100F4000320A1A6122460A992846FFF78BFF0346A8
:100F500048B12B6C042B10D12A68136843F400733A
:100F6000136001230AE02A68F6B2166106E0032343
:100F700004E0032302E0032300E00323184604B047
:100F8000BDE8F081020001002DE9F04184B0054682
:100F90000E46174698460B9C0268136843F480631C
:100FA00013600268136843F48073136000940A9B13
:100FB00000224FF00111FFF7D9FE002874D12B68F1
:100FC000F6B206F0FE021A6123460A9A3F49284605
:100FD000FFF7FEFE20B12B6C042B67D1012370E0DC
:100FE000002303932B685A6903929B690393039B25
:100FF00022460A992846FFF735FF48B12B6C042B8F
:1010000056D12A68136843F400731360012358E033
:10101000B8F1010F03D12B68FFB21F6115E02B68F7
:101020003A0A1A6122460A992846FFF71BFF48B17F
:101030002B6C042B3ED12A68136843F400731360B1
:1010400001233EE02B68FFB21F6122460A99284621
:10105000FFF708FF48B12B6C042B2DD12A681368C9
:1010600043F40073136001232BE02A68136843F4F0
:101070008073136000940A9B00224FF001112846F0
:10108000FFF774FED0B92B6846F001061E612346B7
:101090000A9A0E492846FFF79BFE034688B12B6C3F
:1010A000042B0DD101230CE003230AE0032308E005
:1010B000032306E0032304E0032302E0032300E00C
:1010C0000323184604B0BDE8F08100BF0200010010
:1010D00070B504460D46164619E02046FFF730FE6F
:1010E000E0B9B5F1FF3F12D025B1FFF7CBF9801B76
:1010F00085420CD2236C43F0200323640023236336
:10110000202284F83D2084F83C30032070BD236801
:101110005B6913F0040FE0D0002070BD012070BDAA
:1011200070B505460C46164622E05A6912F0100FBB
:101130000CD06FF010025A6100232B642B63202225
:1011400085F83D2085F83C30012070BD24B1FFF7C3
:1011500099F9801B84420BD22B6C43F020032B6443
:10116000202385F83D30002385F83C30032070BDF6
:101170002B685A6912F0400FD7D0002070BD00BF15
:10118000002800F0E38038B504460368704A9342B3
:101190000CD002F58062934208D002F5806293423F
:1011A00004D040F265116B4802F02CFE6368013BED
:1011B000694A934204D94FF4B371664802F022FEA3
:1011C000A3683BB1B3F5804F04D040F2671161488A
:1011D00002F018FEE36823F47F7323F0030323B1C6
:1011E0004FF4B4715B4802F00DFE2369B3F5804FF4
:1011F00007D0B3F5404F04D040F26911554802F0D2
:1012000001FE6369012B04D94FF4B571514802F016
:10121000F9FDA36933F0FE0304D040F26B114D4891
:1012200002F0F0FDE36933B1402B04D04FF4B67106
:10123000484802F0E7FD236A33B1802B04D040F226
:101240006D11444802F0DEFD94F83D3013F0FF0FBD
:1012500005D1002384F83C3020460EF083FD242382
:1012600084F83D302268136823F00103136000F016
:1012700015FE3A4BA3FB00239B0C226853602168A8
:101280006568374A954201D8013308E04FF49672F9
:1012900002FB03F3334AA2FB03239B0901330B62D6
:1012A000216863682E4A934208D85B00B0FBF3F0D4
:1012B000C0F30B03032B2BD8042029E0A5684DB9FC
:1012C00003EB4302B0FBF2F2C2F30B02B2FA82F27A
:1012D00052090AE003EB830202EB8202B0FBF2F256
:1012E000C2F30B02B2FA82F2520982B935B903EBAA
:1012F0004303B0FBF3F040F4004009E003EB830349
:1013000003EB8303B0FBF3F040F4404000E0012026
:10131000C8612268E169236A0B431360226821696E
:10132000E3680B43936022686169A3690B43D36050
:101330002268136843F00103136000202064202317
:1013400084F83D30206384F83E0038BD01207047AA
:1013500000540040C06601087F1A060083DE1B436C
:10136000A0860100D34D62102DE9F04383B00546FD
:10137000884691461C46BDF82C60FFF783F8074667
:10138000012C06D0102C04D040F65511494802F02B
:1013900039FD95F83D30DBB2202B7ED10097192323
:1013A000012245492846FFF7E1FC002877D195F84E
:1013B0003C30012B75D0012385F83C302A68136836
:1013C00023F400631360212385F83D30402385F822
:1013D0003E3000232B64A3F58033EB6201970C9B16
:1013E000009323464A4641462846FFF763FD0028FE
:1013F00032D02B6C042B04D1002385F83C30012320
:1014000054E0002385F83C3003234FE03A460C9922
:101410002846FFF727FD48B12B6C042B43D12A68DF
:10142000136843F40073136001233FE02B680A9AAA
:1014300001320A9909781961731E9BB229684869BB
:1014400010F0040F06D02BB10A9B9A1C5B780B613D
:10145000B31E9BB21E460A92002ED7D13A460C9973
:101460002846FFF735FE034648B12B6C042B1CD1F0
:101470002A68136843F400731360012316E0296897
:101480000A6842F400720A60202285F83D2000229A
:1014900085F83E2085F83C2008E0022306E0022380
:1014A00004E0022302E0032300E00323184603B014
:1014B000BDE8F083C0660108020010002DE9F0438A
:1014C00087B00546884691461C46BDF83C60FEF74D
:1014D000D9FF0746012C06D0102C04D040F6CC11C1
:1014E000944802F08FFC95F83D30DBB2202B40F0A1
:1014F0000D810097192301228F492846FFF736FCFA
:10150000002840F0058195F83C30012B00F0028165
:10151000012385F83C302A68136823F400631360C4
:10152000222385F83D30402385F83E3000232B648C
:10153000A3F58033EB620197109B009323464A4644
:1015400041462846FFF720FD044660B12B6C042B72
:1015500004D1002385F83C300124E6E0002385F81F
:101560003C300324E1E066B9002302932B685A69FA
:1015700002929A690292029A1A6842F400721A6000
:10158000B8E0012E11D12A68136823F48063136038
:10159000002303932B685A6903929A690392039A72
:1015A0001A6842F400721A60A4E0022E12D12A686E
:1015B000136823F4806313602A68136843F400639C
:1015C0001360002304932B685A6904929B69049367
:1015D000049B8FE0002305932B685A6905929B6951
:1015E0000593059B86E0032E61D8012E15D13A465E
:1015F00010992846FFF794FD28B12B6C202B40F062
:101600008B80032491E02B681B690E9A1370013EB6
:10161000B6B2134601330E936CE0022E1AD1009736
:10162000109B002245492846FFF7A0FB002875D1F2
:101630002A68136843F4007313602B681A690E9BC1
:1016400003F8022B2A6812690E994A70023EB6B25C
:101650000E934FE00097109B002238492846FFF771
:1016600085FB00285CD12A68136823F4806313602B
:101670002B681B690E9A13700097109B00222F494C
:101680002846FFF773FB00284CD12A68136843F4FF
:10169000007313602B681B690E9A53702B681B69CB
:1016A0009370033EB6B2134603330E9322E03A46DC
:1016B00010992846FFF734FD20B12B6C202B33D135
:1016C000032432E00E9B581C2B681B690E9A137082
:1016D000731E9BB22A68516911F0040F08D0136978
:1016E0000E9A5370023EB6B2134602330E9301E0D7
:1016F0001E460E90002E7FF476AF202385F83D30F5
:10170000002385F83E3085F83C300EE002240CE0E2
:1017100002240AE0022408E0012406E0032404E095
:10172000032402E0032400E00124204607B0BDE8C2
:10173000F08300BFC0660108020010000400010031
:1017400030B583B0044603680F2B03D9F5219C48BC
:1017500002F058FB236813F0010F45D06368012B9A
:1017600005D9052B03D0FA21954802F04BFB954B88
:101770009B6803F00C03042B0AD0924B9B6803F088
:101780000C03082B0CD18F4B5B6813F4800F07D030
:101790008C4B1B6813F4003F26D0636823BBCCE15D
:1017A0002279894B1A7063687BB1FEF76BFE0546A0
:1017B00005E0FEF767FE401B642800F2C081814B04
:1017C0001B6813F4003FF4D00EE0FEF75BFE054605
:1017D00005E0FEF757FE401B642800F2B281794B0A
:1017E0001B6813F4003FF4D1236813F0020F6AD092
:1017F000E368012B04D94FF49671714802F002FBA3
:1018000023691F2B04D940F22D116D4802F0FAFA1A
:101810006C4B9B6813F00C0F0AD06A4B9B6803F06B
:101820000C03082B1BD1674B5B6813F4800F16D198
:10183000644B1B6813F0020F03D0E368012B40F0E8
:1018400082816048036823F0F8012369F82292FA44
:10185000A2F2B2FA82F293400B43036033E0E368F2
:10186000FBB10122594B1A60FEF70CFE054605E05C
:10187000FEF708FE401B022800F26781514B1B68EF
:1018800013F0020FF4D04F48036823F0F8012369E6
:10189000F82292FAA2F2B2FA82F293400B4303606A
:1018A00011E00022494B1A60FEF7ECFD054605E009
:1018B000FEF7E8FD401B022800F24981414B1B68FE
:1018C00013F0020FF4D1236813F0080F2ED06369D0
:1018D000012B04D940F26D11394802F093FA636983
:1018E00093B101223A4B1A60FEF7CCFD054605E0A4
:1018F000FEF7C8FD401B022800F22B81314B5B6FC5
:1019000013F0020FF4D011E00022314B1A60FEF701
:10191000B9FD054605E0FEF7B5FD401B022800F2C3
:101920001A81284B5B6F13F0020FF4D1236813F078
:10193000040F60D0A368012B06D9052B04D040F218
:1019400097111F4802F05EFA002301931D4B1A6C99
:1019500042F080521A641B6C03F080530193019B88
:101960001C4A136843F480731360FEF78BFD054631
:1019700005E0FEF787FD401B022800F2EE80154BC4
:101980001B6813F4807FF4D0227A134B1A70A3687B
:101990008BB1FEF777FD054607E0FEF773FD401BB0
:1019A00041F28833984200F2DA80064B1B6F13F045
:1019B000020FF2D01FE0FEF765FD054616E000BFFE
:1019C0000067010800380240023802400000474228
:1019D000800E47420070004070380240FEF752FD12
:1019E000401B41F28833984200F2BB80634B1B6F6F
:1019F00013F0020FF2D1A369022B04D94FF4E67160
:101A00005F4802F0FFF9A369002B00F0AC805B4A4D
:101A1000926802F00C02082A00F0A780022B79D10C
:101A2000E3693BB1B3F5800F04D040F2D5115448BF
:101A300002F0E8F9236A3F2B04D94FF4EB715048C8
:101A400002F0E0F9636A323BB3F5BF7F04D940F29C
:101A5000D7114B4802F0D6F9A36A022B0AD0042B07
:101A600008D0062B06D0082B04D04FF4EC71444864
:101A700002F0C8F9E36A043B0B2B04D940F2D911F8
:101A80003F4802F0BFF900223E4B1A60FEF7FAFC15
:101A9000054604E0FEF7F6FC401B022867D8374BEA
:101AA0001B6813F0007FF5D1E169236A1943636A6B
:101AB00047F6C07292FAA2F2B2FA82F29340194348
:101AC000A36A5B085A1E4FF4403393FAA3F3B3FAA8
:101AD00083F302FA03F30B43E26A4FF0706191FA69
:101AE000A1F1B1FA81F18A401343244A53600122E3
:101AF000244B1A60FEF7C6FC044604E0FEF7C2FC65
:101B0000001B022835D81D4B1B6813F0007FF5D051
:101B1000002031E000221B4B1A60FEF7B3FC0446A4
:101B200004E0FEF7AFFC001B022824D8134B1B680F
:101B300013F0007FF5D100201EE001201CE00320FF
:101B40001AE0032018E0012016E0032014E003202F
:101B500012E0032010E003200EE003200CE003203D
:101B60000AE0032008E0002006E0012004E0032052
:101B700002E0032000E0032003B030BD0038024043
:101B80000067010860004742254B9B6803F00C0387
:101B9000042B3FD0082B01D02248704710B4204BB3
:101BA000586800F03F005B6813F4800F10D01E4BA4
:101BB000B3FBF0F01A4B5A6847F6C0710A4091FA2D
:101BC000A1F3B3FA83F322FA03F303FB00F310E06B
:101BD000144BB3FBF0F0124B5A6847F6C07402EA9C
:101BE000040194FAA4F2B2FA82F221FA02F202FBA0
:101BF00000F30B4A506800F440324FF4403090FA42
:101C0000A0F0B0FA80F022FA00F001304000B3FBFF
:101C1000F0F001E0044870475DF8044B704700BFE6
:101C2000003802400024F40000127A0070B5044627
:101C30000D460368013B0E2B04D940F237218F4833
:101C400002F0E0F8072D04D94FF40E718B4802F032
:101C5000D9F88B4B1B6803F00F039D4208D9EBB2F8
:101C6000874A1370136803F00F039D4240F0F4801D
:101C7000236813F0020F1DD0A368A3B1802B12D0EC
:101C8000902B10D0A02B0ED0B02B0CD0C02B0AD094
:101C9000D02B08D0E02B06D0F02B04D040F24F21FF
:101CA000764802F0AFF877498B6823F0F002A3681A
:101CB00013438B60236813F0010F6BD06368032B11
:101CC00004D940F256216D4802F09CF86268012A5E
:101CD00005D16C4B1B6813F4003F0FD1BEE0931E7F
:101CE000012B05D8674B1B6813F0007F06D1B7E0C6
:101CF000644B1B6813F0020F00F0B48061498B68DD
:101D000023F0030313438B60FEF7BCFB06466368B6
:101D1000012B0FD107E0FEF7B5FB801B41F28833A2
:101D2000984200F2A180574B9B6803F00C03042BF0
:101D3000F1D12FE0022B0FD107E0FEF7A3FB801BB0
:101D400041F28833984200F291804E4B9B6803F039
:101D50000C03082BF1D11DE0032B16D107E0FEF791
:101D600091FB801B41F28833984200F28180454B01
:101D70009B6803F00C030C2BF1D10BE0FEF782FB08
:101D8000801B41F28833984274D83E4B9B6813F015
:101D90000C0FF3D13A4B1B6803F00F039D4207D29F
:101DA000EAB2374B1A701B6803F00F039D4263D1F0
:101DB000236813F0040F19D0E36883B1B3F5805F93
:101DC0000DD0B3F5A05F0AD0B3F5C05F07D0B3F56F
:101DD000E05F04D04FF42D71284802F013F8294930
:101DE0008B6823F4E052E36813438B60236813F09D
:101DF000080F1AD0236983B1B3F5805F0DD0B3F516
:101E0000A05F0AD0B3F5C05F07D0B3F5E05F04D0A0
:101E100040F2BB21194801F0F5FF1A4A936823F4F8
:101E20006043216943EAC1039360FFF7ADFE154BA0
:101E30009B6803F0F002F02393FAA3F3B3FA83F361
:101E400022FA03F3104AD35CD840104B18600120EB
:101E500002F050F9002070BD012070BD012070BD5E
:101E6000012070BD012070BD032070BD032070BD36
:101E7000032070BD032070BD012070BD0067010804
:101E8000003C024000380240F06601080C000020CF
:101E9000014B1868704700BF0C00002008B5FFF721
:101EA000F7FF084B9B6803F4E0524FF4E05393FABA
:101EB000A3F3B3FA83F322FA03F3034AD35CD840C3
:101EC00008BD00BF00380240F066010808B5FFF702
:101ED000DFFF084B9B6803F460424FF4604393FAC2
:101EE000A3F3B3FA83F322FA03F3034AD35CD84093
:101EF00008BD00BF00380240F06601080F230360F0
:101F00000B4B9A6802F0030242609A6802F0F002FA
:101F100082609A6802F4E052C2609B68DB0803F4B6
:101F2000E0530361034B1B6803F00F030B60704722
:101F300000380240003C0240F8B505460F46164600
:101F40001C4636E0B4F1FF3F33D02CB1FEF79AFACD
:101F5000069BC01A84422CD82A68536823F0E003F9
:101F600053606B68B3F5827F0BD1AB68B3F5004F5C
:101F700002D0B3F5806F04D12A68136823F04003C0
:101F80001360AB6AB3F5005F0BD12A68136823F4C2
:101F900000531B041B0C13602A68136843F400539E
:101FA0001360012385F85130002385F85030032059
:101FB000F8BD2B689B6837EA030301D1012300E0D9
:101FC0000023B342BED10020F8BD00BF10B582B0DF
:101FD000044600920B4600228021FFF7ADFF034626
:101FE00020B1636D43F0200363650323184602B0FC
:101FF00010BD00BF002800F0D58010B5044603686E
:10200000694A93420CD0A2F57842934208D002F577
:102010008062934204D040F20B11644801F0F2FE5A
:1020200063683BB1B3F5827F04D04FF486715F489B
:1020300001F0E8FEA36853B1B3F5806F07D0B3F5A4
:10204000004F04D040F20D11584801F0DBFEE36868
:10205000B3F5006F05D023B14FF48771534801F0F9
:10206000D1FEA369B3F5007F08D03BB1B3F5802F53
:1020700004D040F20F114D4801F0C4FEE36993B162
:10208000082B10D0102B0ED0182B0CD0202B0AD0E0
:10209000282B08D0302B06D0382B04D04FF4887171
:1020A000424801F0AFFE236A33B1802B04D040F2E6
:1020B00011113E4801F0A6FE636A33B1102B04D023
:1020C0004FF48971394801F09DFE636A83B9236931
:1020D00033B1022B04D040F21511344801F092FEC6
:1020E0006369012B04D94FF48B71304801F08AFEEB
:1020F000A36A3BB1B3F5005F04D040F219112B483D
:1021000001F080FEA36AB3F5005F0AD1E36A013BE8
:102110004FF6FE72934204D94FF48E71234801F0BA
:1021200071FE94F8513013F0FF0F05D1002384F8AD
:10213000503020460DF004FF022384F8513022680D
:10214000136823F04003136021686268A3681A4390
:10215000E3681A4323691A4363691A43A36903F4C2
:1021600000731343E2691343226A1343A26A1A43BA
:102170000A602168638B03F00402636A13434B60B7
:10218000A36AB3F5005F02D12368E26A1A6122688C
:10219000D36923F40063D36100206065012384F8D0
:1021A000513010BD012070470030014030670108F8
:1021B0002DE9F04184B004460E4690461D468368E2
:1021C0003BB1B3F5004F04D04FF4E171764801F014
:1021D00019FE94F85030012B00F0E180012384F8BF
:1021E0005030FEF74FF9074694F85130DBB2012B1F
:1021F00040F0BD80002E00F0BC80B8F1000F00F070
:10220000BA80032384F85130002363652663A4F861
:102210003480A4F83680A363A387E38763642364D0
:10222000A368B3F5004F04D12268136843F48043D8
:102230001360A36AB3F5005F0BD12268136823F41F
:1022400000531B041B0C13602268136843F40053F3
:10225000136023681A6812F0400F03D11A6842F025
:1022600040021A60E368B3F5006F2CD163681BB1BC
:10227000E38E9BB2012B21D1236836F8022BDA6062
:10228000E38E9BB2013B9BB2E38617E023689A681A
:1022900012F0020F08D036F8022BDA60E38E9BB200
:1022A000013B9BB2E38609E0002D66D0B5F1FF3F0C
:1022B00004D0FEF7E7F8C01B854260D9E38E9BB2DD
:1022C000002BE3D12BE063681BB1E38E9BB2012BA3
:1022D00021D1236816F8012B1A73E38E9BB2013BC0
:1022E0009BB2E38617E023689A6812F0020F08D0C9
:1022F00016F8012B1A73E38E9BB2013B9BB2E38667
:1023000009E0002D3DD0B5F1FF3F04D0FEF7BAF84B
:10231000C01B854237D9E38E9BB2002BE3D10097D7
:102320002B46012202212046FFF706FE68BB3A46F3
:1023300029462046FFF74AFE18B120236365012095
:1023400026E0A36833B903932368DA6803929B6895
:102350000393039BA36AB3F5005F04D1226813685B
:1023600043F480531360636D8BB9002010E00220AA
:102370000EE001200CE001200AE0032008E0032029
:1023800006E0032004E0032002E0032000E0012037
:10239000012384F85130002384F8503000E00220FB
:1023A00004B0BDE8F08100BF306701082DE9F043BB
:1023B00085B004460F46154699460C9E0023ADF89D
:1023C0000E30836823B140F23631A04801F01AFD87
:1023D00094F85030012B00F07281012384F85030C2
:1023E000FEF750F8804694F85130DBB26268012B5A
:1023F0000AD0B2F5827F40F04981A268002A40F0FD
:102400004781042B40F04681002F00F04581002DCC
:1024100000F04481B9F1000F00F0428194F851308E
:10242000DBB2012B02D1052384F851300023636510
:10243000A563A4F83E90A4F83C902763A4F83690D6
:10244000A4F8349023646364A36AB3F5005F0BD1EE
:102450002268136823F400531B041B0C13602268CA
:10246000136843F40053136023681A6812F0400F96
:1024700003D11A6842F040021A60E368B3F5006FB6
:102480005DD163681BB1E38E9BB2012B08D1236839
:1024900037F8022BDA60E38E9BB2013B9BB2E386F6
:1024A0004FF0010942E0B9F1000F23D0E38E9BB257
:1024B00003B323689A6812F0020F1BD037F8022B7F
:1024C000DA60E38E9BB2013B9BB2E386E38E9BB264
:1024D0005BB9A36AB3F5005F0AD12268136843F4BD
:1024E000805313604FF0000904E04FF0000901E051
:1024F0004FF00009E38F9BB273B123689A6812F022
:10250000010F09D0DB6825F8023BE38F9BB2013B4A
:102510009BB2E3874FF00109B6F1FF3F06D0FDF70C
:10252000B1FFC8EB0000864240F2BC80E38E9BB254
:10253000002BB8D1E38F9BB2002BB4D15EE063686F
:102540001BB1E38E9BB2012B08D1236817F8012B36
:102550001A73E38E9BB2013B9BB2E3864FF00109F5
:1025600044E0B9F1000F26D0E38E9BB21BB3236881
:102570009A6812F0020F1ED0791C3A781A73E38E13
:102580009BB2013B9BB2E386E38E9BB263B9A36A25
:10259000B3F5005F0CD12268136843F480531360D5
:1025A0000F464FF0000906E00F464FF0000902E029
:1025B0000F464FF00009E38F9BB273B123689A680E
:1025C00012F0010F09D0DB682B70E38F9BB2013B47
:1025D0009BB2E38701354FF00109B6F1FF3F05D00B
:1025E000FDF750FFC8EB000086425DD9E38E9BB239
:1025F000002BB6D1E38F9BB2002BB2D1A36AB3F507
:10260000005F15D1CDF800803346012211462046E7
:10261000FFF792FC28B1636D43F002036365032565
:1026200045E02368DB689BB2ADF80E30BDF80E3094
:1026300023689A6812F0100F0AD0626D42F002020D
:1026400062654FF6EF729A60012502E0306701087B
:102650000025CDF800803346012202212046FFF7F5
:102660006BFC18BB424631462046FFF7AFFC18B161
:102670002023636501251AE0A368C3B90293236888
:10268000DA6802929B680293029B10E002250EE03A
:1026900002250CE002250AE0012508E0012506E0FC
:1026A000012504E0032502E0032500E003250123C2
:1026B00084F85130002384F85030284600E002208E
:1026C00005B0BDE8F08300BF2DE9F04184B00446B9
:1026D0000D4690461E460023ADF80E304368B3F514
:1026E000827F0AD1836843B9042380F85130009671
:1026F00013460A46FFF75AFEF5E094F85030012BD6
:1027000000F0F080012384F85030FDF7BBFE07464F
:1027100094F85130DBB2012B40F0CC80002D00F05A
:10272000CB80B8F1000F00F0C980042384F8513049
:1027300000236365A563A4F83C80A4F83E8023636E
:10274000A386E38623646364A36AB3F5005F10D1B4
:102750002268136823F400531B041B0C13602268C7
:10276000136843F400531360E38F9BB2013B9BB2A9
:10277000E387A368B3F5004F04D12268136823F4FC
:102780008043136023681A6812F0400F03D11A685F
:1027900042F040021A60E368CBB135E023689A68E2
:1027A00012F0010F08D01B7B05F8013BE38F9BB2B1
:1027B000013B9BB2E3870AE0002E00F08180B6F176
:1027C000FF3F04D0FDF75EFEC01B86427AD9E38F3F
:1027D0009BB2002BE2D11BE023689A6812F0010F34
:1027E00008D0DB6825F8023BE38F9BB2013B9BB22C
:1027F000E38709E0002E67D0B6F1FF3F04D0FDF774
:1028000041FEC01B864261D9E38F9BB2002BE3D10E
:10281000A36AB3F5005F2DD12268136843F4805397
:10282000136000973346012211462046FFF784FBD0
:1028300000284DD1E368B3F5006F03D12368DB684E
:102840002B8002E023681B7B2B700097334601220C
:1028500011462046FFF770FB28B1636D43F0020379
:102860006365032037E02368DB689BB2ADF80E3068
:10287000BDF80E306368B3F5827F0BD1A368B3F562
:10288000004F02D0B3F5806F04D12268136823F0A3
:102890004003136023689A6812F0100F06D0626D2F
:1028A00042F0020262654FF6EF729A60636D8BB977
:1028B000002010E002200EE001200CE001200AE0E0
:1028C000032008E0032006E0032004E0032002E0E8
:1028D000032000E00120012384F85130002384F814
:1028E000503000E0022004B0BDE8F08170B4036A0B
:1028F00023F001030362036A4268846924F07304CD
:102900000D6844EA050623F002048B6823430F4D4B
:10291000A84204D00E4CA04203D1012402E00124BD
:1029200000E000245CB123F00803CD682B4323F0C2
:10293000040322F440724D6915438A692A434260B8
:1029400086614A684263036270BC704700000140C0
:10295000000401402DE9F04104460E46036A23F4C9
:1029600080730362056A4768C36923F073080B68C4
:1029700048EA030825F400738D6843EA0525204BD7
:10298000984205D003F58063984203D1012302E009
:10299000012300E000235BB3F36833B1082B04D0BC
:1029A00041F21131174801F02DFAB369B3F5007FF8
:1029B00005D023B141F21231124801F023FA7369B4
:1029C000B3F5807F05D023B141F213310D4801F0FA
:1029D00019FA25F40065F36845EA032525F48065B6
:1029E00027F44057736947EA0317B36947EA0317A7
:1029F0006760C4F81C807368E3632562BDE8F081FA
:102A000000000140606701082DE9F04104460F46CF
:102A1000036A23F480530362056AD0F80480C66910
:102A200026F4E6430E6843EA062625F400538D6833
:102A300043EA0535114B984205D003F5806398426F
:102A400003D1012302E0012300E0002373B17B697D
:102A5000B3F5807F05D023B141F25731084801F02A
:102A6000D1F928F480487B6948EA8318C4F80480C7
:102A7000E6617B6823642562BDE8F08100000140C7
:102A800060670108704700BF10B504460368234A19
:102A9000934237D0B3F1804F34D0A2F57C429342B9
:102AA00030D002F5806293422CD002F580629342CE
:102AB00028D002F58062934224D002F580629342CE
:102AC00020D002F5704293421CD002F5705293421E
:102AD00018D002F58062934214D002F580629342CE
:102AE00010D0A2F5983293420CD002F58062934246
:102AF00008D002F58062934204D04FF4B2710848C6
:102B000001F080F92268D36843F00103D3602268A2
:102B1000136843F001031360002010BD0000014062
:102B200060670108704700BF704700BF704700BF73
:102B3000704700BF10B5044603681A6912F0020F0F
:102B400017D0DA6812F0020F13D06FF002021A6188
:102B50000123037603689B6913F0030F02D0FFF78C
:102B6000E3FF04E0FFF7DEFF2046FFF7DFFF00236F
:102B7000237623681A6912F0040F19D0DA6812F06C
:102B8000040F15D06FF004021A6102232376236824
:102B90009B6913F4407F03D02046FFF7C5FF05E093
:102BA0002046FFF7BFFF2046FFF7C0FF0023237634
:102BB00023681A6912F0080F19D0DA6812F0080FAA
:102BC00015D06FF008021A61042323762368DB69AD
:102BD00013F0030F03D02046FFF7A6FF05E02046C1
:102BE000FFF7A0FF2046FFF7A1FF0023237623680D
:102BF0001A6912F0100F19D0DA6812F0100F15D000
:102C00006FF010021A61082323762368DB6913F43E
:102C1000407F03D02046FFF787FF05E02046FFF7FF
:102C200081FF2046FFF782FF0023237623681A697D
:102C300012F0010F09D0DA6812F0010F05D06FF021
:102C400001021A61204601F099FA23681A6912F00C
:102C5000800F09D0DA6812F0800F05D06FF0800283
:102C60001A61204600F022FC23681A6912F0400F16
:102C700009D0DA6812F0400F05D06FF040021A61F7
:102C80002046FFF755FF23681A6912F0200F09D07C
:102C9000DA6812F0200F05D06FF020021A6120468A
:102CA00000F002FC10BD00BF0368454A904214D0FA
:102CB000B0F1804F13D0A2F57C42904211D002F5C2
:102CC000806290420FD002F5806290420DD002F5F2
:102CD000784290420BD101220AE0012208E0012251
:102CE00006E0012204E0012202E0012200E00022CD
:102CF0001AB123F070034A681343314A90422CD032
:102D0000B0F1804F2BD0A2F57C42904229D002F541
:102D10008062904227D002F58062904225D002F571
:102D20007842904223D002F57052904221D002F5B1
:102D3000806290421FD002F5806290421DD0A2F5C1
:102D4000983290421BD002F58062904219D002F571
:102D50008062904217D1012216E0012214E0012284
:102D600012E0012210E001220EE001220CE001221B
:102D70000AE0012208E0012206E0012204E001222B
:102D800002E0012200E000221AB123F44073CA6875
:102D9000134303608B68C3620B688362084B9842DD
:102DA00005D003F58063984203D1012302E001239B
:102DB00000E000230BB10B690363012343617047FB
:102DC0000000014000286DD010B504460368364A63
:102DD000934236D0B3F1804F33D0A2F57C42934278
:102DE0002FD002F5806293422BD002F5806293428D
:102DF00027D002F58062934223D002F5806293428D
:102E00001FD002F5704293421BD002F570529342DC
:102E100017D002F58062934213D002F5806293428C
:102E20000FD0A2F5983293420BD002F58062934204
:102E300007D002F58062934203D0D9211B4800F0ED
:102E4000E1FFA3685BB1102B09D0202B07D0402BEA
:102E500005D0602B03D0DA21144800F0D3FF23699A
:102E60004BB1B3F5807F06D0B3F5007F03D0DB21F3
:102E70000E4800F0C7FF94F8393013F0FF0F05D16A
:102E8000002384F838302046FFF7FCFD022384F845
:102E90003930211D2068FFF707FF012384F83930FE
:102EA000002010BD0120704700000140606701084C
:102EB000002870D010B504460368384A934237D0D2
:102EC000B3F1804F34D0A2F57C42934230D002F56A
:102ED000806293422CD002F58062934228D002F5A2
:102EE0008062934224D002F58062934220D002F5A2
:102EF000704293421CD002F57052934218D002F5F2
:102F00008062934214D002F58062934210D0A2F501
:102F1000983293420CD002F58062934208D002F5B9
:102F20008062934204D040F2F3311D4800F06AFF02
:102F3000A36863B1102B0AD0202B08D0402B06D0F9
:102F4000602B04D04FF47D71154800F05BFF2369BE
:102F500053B1B3F5807F07D0B3F5007F04D040F2C2
:102F6000F5310F4800F04EFF94F8393013F0FF0FA1
:102F700005D1002384F83830204601F08FFA02236F
:102F800084F83930211D2068FFF78EFE012384F874
:102F90003930002010BD0120704700BF0000014003
:102FA000606701082DE9F04104460E46036A23F0EC
:102FB00010030362056AD0F80480876927F4E643AA
:102FC0000F6843EA072725F020038D6843EA0515BB
:102FD000164B984205D003F58063984203D1012334
:102FE00002E0012300E00023BBB1F36833B1082BFA
:102FF00004D041F2FF110E4800F004FF25F08005D7
:10300000F36845EA031525F0400528F44068736924
:1030100048EA8308B36948EA8308C4F80480A761D2
:103020007368A3632562BDE8F08100BF0000014022
:103030006067010890F83830012B00F02E8170B5E0
:1030400016460D460446012380F8383062B1042A42
:103050000AD0082A08D00C2A06D0182A04D040F634
:103060003E418F4800F0CEFE2B68602B06D0702BBF
:1030700004D040F63F418A4800F0C4FEAB6833B14B
:10308000022B04D04FF44461854800F0BBFE2B694D
:1030900033B1042B04D040F64141814800F0B2FE28
:1030A000022384F839300C2E00F2F080DFE816F0AD
:1030B0000D00EE00EE00EE005500EE00EE00EE001A
:1030C0008E00EE00EE00EE00BE002368754A9342CB
:1030D0002FD0B3F1804F2CD0A2F57C42934228D060
:1030E00002F58062934224D002F58062934220D0A0
:1030F00002F5784293421CD002F57052934218D0E8
:1031000002F58062934214D002F58062934210D09F
:10311000A2F5983293420CD002F58062934208D017
:1031200002F58062934204D040F649415C4800F0C9
:1031300069FE29462068FFF7D9FB2268936943F0AE
:10314000080393612268936923F004039361226862
:1031500091692B690B43936198E02368514A93422C
:103160001FD0B3F1804F1CD0A2F57C42934218D0FF
:1031700002F58062934214D002F58062934210D02F
:1031800002F5784293420CD002F57052934208D077
:10319000A2F59432934204D040F65841404800F0E2
:1031A00031FE29462068FFF7FDFE2268936943F44B
:1031B000006393612268936923F4806393612268BA
:1031C0009369296943EA012393615FE02368354AE3
:1031D000934217D0B3F1804F14D0A2F57C429342B2
:1031E00010D002F5806293420CD002F580629342C7
:1031F00008D002F57842934204D040F6674128484F
:1032000000F000FE29462068FFF7A4FB2268D3697E
:1032100043F00803D3612268D36923F00403D36128
:103220002268D1692B690B43D3612FE023681D4AC3
:10323000934217D0B3F1804F14D0A2F57C42934251
:1032400010D002F5806293420CD002F58062934266
:1032500008D002F57842934204D040F676411048F7
:1032600000F0D0FD29462068FFF7CEFB2268D36925
:1032700043F40063D3612268D36923F48063D3618C
:103280002268D369296943EA0123D361012384F8C1
:103290003930002084F8380070BD0220704700BF2C
:1032A000606701080000014070B504460E461546EF
:1032B000184B984217D0B0F1804F14D0A3F57C433F
:1032C000984210D003F5806398420CD003F58063D8
:1032D000984208D003F57843984204D040F23F71F9
:1032E0000D4800F08FFD46B1042E06D0082E04D004
:1032F0004FF4E861084800F085FD042303FA06F264
:10330000236A23EA02032362236AB5401D43256230
:1033100070BD00BF000001409067010838B5044649
:103320000D460368264A934203D002F58062934219
:1033300004D145B1042D06D0082D04D040F2CD3182
:10334000204800F05FFD0C2D1FD8DFE805F0071EB8
:103350001E1E0D1E1E1E131E1E1E19002268D3687F
:1033600043F00203D36010E02268D36843F0040303
:10337000D3600AE02268D36843F00803D36004E016
:103380002268D36843F01003D3602268D36843F007
:103390000103D3602268D36843F08003D360042222
:1033A00029462068FFF780FF2268536C43F40043EE
:1033B00053642268136843F001031360002038BD92
:1033C000000001409067010838B504460D460368C7
:1033D000334A934203D002F58062934204D145B14F
:1033E000042D06D0082D04D040F214412D4800F0E1
:1033F00009FD0C2D1FD8DFE805F0071E1E1E0D1E4F
:103400001E1E131E1E1E19002268D36823F002031D
:10341000D36010E02268D36823F00403D3600AE08D
:103420002268D36823F00803D36004E02268D368DD
:1034300023F01003D360002229462068FFF734FFF1
:103440002368196A40F24442114203D1DA6822F03B
:103450008002DA602268D36823F00103D360236816
:10346000196A41F21112114208D1196A40F244421C
:10347000114203D15A6C22F400425A642368196A3B
:1034800041F21112114208D1196A40F2444211422C
:1034900003D11A6822F001021A60002038BD00BF73
:1034A0000000014090670108704700BF704700BFEF
:1034B0002DE9F84304464268B14B9A4204D940F2E0
:1034C0004F71B04800F09EFCE3683BB1B3F5005F7C
:1034D00004D04FF4EA61AB4800F094FC236953B187
:1034E000B3F5806F07D0B3F5C06F04D040F25171CF
:1034F000A44800F087FC63694FF6F372134200D1D1
:1035000023B940F252719F4800F07CFC21680B699E
:1035100023F44052E36813430B612068C36823F42B
:10352000164222F00C02A16823691943636919430A
:10353000E3690B431343C36021684B6923F4407272
:10354000A36913434B61E369B3F5004F40F0BB80BF
:10355000276803F1804303F510439F4203D003F52E
:1035600080639F4257D1FEF7B1FC00EB800000EB77
:10357000800065686D00B0FBF5F5834EA6FB053550
:103580006D092D01FEF7A2FC00EB800000EB80002E
:1035900063685B00B0FBF3F9FEF798FC00EB80007A
:1035A00000EB800063685B00B0FBF3F3A6FB032332
:1035B0005B094FF0640808FB1393DB003233A6FB72
:1035C00003235B095B0003F4F8731D44FEF77EFCE4
:1035D00000EB800000EB800063685B00B0FBF3F958
:1035E000FEF774FC00EB800000EB800063685B007A
:1035F000B0FBF3F3A6FB03235B0908FB13984FEA28
:10360000C80808F13208A6FB0836C6F3421635444E
:10361000BD60BDE8F883FEF741FC00EB800000EBE5
:10362000800065686D00B0FBF5F5574EA6FB0535CB
:103630006D092D01FEF732FC00EB800000EB8000ED
:1036400063685B00B0FBF3F9FEF728FC00EB800039
:1036500000EB800063685B00B0FBF3F3A6FB032381
:103660005B094FF0640808FB1393DB003233A6FBC1
:1036700003235B095B0003F4F8731D44FEF70EFCA3
:1036800000EB800000EB800063685B00B0FBF3F9A7
:10369000FEF704FC00EB800000EB800063685B0039
:1036A000B0FBF3F3A6FB03235B0908FB13984FEA77
:1036B000C80808F13208A6FB0836C6F3421635449E
:1036C000BD60BDE8F8832668304B9E4203D003F509
:1036D00080639E425CD1FEF7F9FB00EB800000EBBB
:1036E00080006568AD00B0FBF5F5274FA7FB0535F9
:1036F0006D092D01FEF7EAFB00EB800000EB800076
:1037000063689B00B0FBF3F8FEF7E0FB00EB800082
:1037100000EB800063689B00B0FBF3F3A7FB03237F
:103720005B094FF0640909FB13831B013233A7FBCC
:1037300003235B0903F0F0031D44FEF7C7FB00EB16
:10374000800000EB800063689B00B0FBF3F8FEF79D
:10375000BDFB00EB800000EB800063689B00B0FBCA
:10376000F3F3A7FB03235B0909FB13831B0132332C
:10377000A7FB0323C3F343131D44B560BDE8F883DF
:10378000A037A000C46701081F85EB51001001405D
:10379000FEF784FB00EB800000EB80006568AD0065
:1037A000B0FBF5F5254FA7FB05356D092D01FEF79B
:1037B00075FB00EB800000EB800063689B00B0FBB2
:1037C000F3F8FEF76BFB00EB800000EB8000636812
:1037D0009B00B0FBF3F3A7FB03235B094FF06409E5
:1037E00009FB13831B013233A7FB03235B0903F09F
:1037F000F0031D44FEF752FB00EB800000EB80005D
:1038000063689B00B0FBF3F8FEF748FB00EB800019
:1038100000EB800063689B00B0FBF3F3A7FB03237E
:103820005B0909FB13831B013233A7FB0323C3F39B
:1038300043131D44B560BDE8F88300BF1F85EB51FD
:10384000002800F0868010B5044683691BB3036826
:10385000414A93420FD0A2F54C4293420BD002F55D
:103860008062934207D002F54C42934203D0FE217E
:103870003A4800F0C7FAA36953B3B3F5807F27D065
:10388000B3F5007F24D0B3F5407F21D0FF2133482A
:1038900000F0B8FA1CE003682F4A934218D0A2F552
:1038A0004C42934214D002F58062934210D002F54C
:1038B000806293420CD002F58062934208D002F5F8
:1038C0004442934204D040F20311244800F09AFA93
:1038D000A3683BB1B3F5805F04D040F205111F48E7
:1038E00000F090FAE3693BB1B3F5004F04D04FF418
:1038F00083711A4800F086FA94F8393013F0FF0FFC
:1039000005D1002384F8383020460CF061FA2423D6
:1039100084F839302268D36823F40053D3602046FA
:10392000FFF7C6FD2268136923F4904313612268F0
:10393000536923F02A0353612268D36843F4005388
:10394000D3600020E063202384F8393084F83A30D3
:1039500010BD0120704700BF00100140C46701087E
:103960002DE9F04104460368814A934210D0A2F544
:103970004C4293420CD002F58062934208D002F58B
:103980004C42934204D04FF4F4617A4800F03AFA82
:10399000A3693BB1B3F5806F04D040F2A1717548C3
:1039A00000F030FAE3693BB1B3F5007F04D040F298
:1039B000A271704800F026FA236A3BB1B3F5807F0C
:1039C00004D040F2A3716B4800F01CFA62686A4BA5
:1039D0009A4204D940F2A471664800F013FAA36831
:1039E0003BB1B3F5805F04D040F2A571614800F0AF
:1039F00009FAE3686BB1B3F5805F0AD0B3F5405FB5
:103A000007D0B3F5005F04D040F2A671594800F02A
:103A1000F9F9236953B1B3F5806F07D0B3F5C06FDF
:103A200004D040F2A771534800F0ECF963694FF6F7
:103A3000F372134200D123B94FF4F5614D4800F001
:103A4000E1F92268D36823F00C03D360206803698E
:103A500023F47C52A169E3691943236A1943E3689B
:103A60000B43134343F4006303612068C36823F4EA
:103A7000164222F00C02A1682369194363690B43C3
:103A8000134343F40043C3602268536923F4407333
:103A900053612568364B9D4203D003F580639D42F8
:103AA00032D1FEF713FA00EB800000EB8000636870
:103AB0005B00B0FBF3F3314FA7FB03235B091E014F
:103AC000FEF704FA00EB800000EB800063685B0007
:103AD000B0FBF3F8FEF7FAF900EB800000EB800092
:103AE00063685B00B0FBF3F3A7FB03235B0964226D
:103AF00002FB13831B013233A7FB0323C3F34313DE
:103B00003343AB60BDE8F081FEF7C8F900EB8000FD
:103B100000EB800063685B00B0FBF3F3174FA7FB7B
:103B200003235B091E01FEF7B9F900EB800000EBEF
:103B3000800063685B00B0FBF3F8FEF7AFF900EBC1
:103B4000800000EB800063685B00B0FBF3F3A7FB31
:103B500003235A09642303FB12831B013233A7FB9F
:103B60000323C3F343133343AB60BDE8F08100BFCD
:103B700000100140F4670108A037A0001F85EB5139
:103B80002DE9F04105460F4616469846069C26E06C
:103B9000B4F1FF3F23D02CB1FCF774FCC8EB00005C
:103BA00084421CD22A68D36823F08003D3602A6839
:103BB000D36823F02003D3602A68D36823F480738A
:103BC000D3602A68536923F001035361012385F808
:103BD0003D30002385F83C300320BDE8F0812B68A0
:103BE0001B6837EA03030CBF01230023B342CFD085
:103BF0000020BDE8F08100BF00283BD010B504468E
:103C000003681D4A93420FD0A2F54C4293420BD059
:103C100002F58062934207D002F54C42934203D0F2
:103C2000EB21164800F0EEF894F83D3013F0FF0F4A
:103C300005D1002384F83C3020460CF007F902231C
:103C400084F83D302046FFF78BFE2268136923F489
:103C5000804313612268536923F02A035361226869
:103C6000D36843F40053D36000202064012384F818
:103C70003D3010BD0120704700100140F46701087D
:103C80002DE9F04182B01E4690F83D30DBB2012BA9
:103C900056D104460D469046002953D0002A53D0F1
:103CA00090F83C30012B51D0012380F83C300023A8
:103CB0000364122380F83D30FCF7E4FB0746A4F8C8
:103CC0002880A4F82A8027E0638D9BB2013B9BB239
:103CD0006385A368B3F5805F12D100963B4600224E
:103CE00080212046FFF74CFF90BB22682B88C3F34E
:103CF0000803536023690BB902350DE001350BE071
:103D000000963B46002280212046FFF739FF08BB82
:103D100023682A785A600135638D9BB2002BD3D17A
:103D200000963B46002240212046FFF729FF03462C
:103D300090B9012284F83D20002284F83C200CE058
:103D400002230AE0012308E0012306E0022304E045
:103D5000032302E0032300E00323184602B0BDE87A
:103D6000F08100BFFEE700BF08B5034800F06CF823
:103D70000120FFF7F7FF00BF2468010808B50D4BCD
:103D80001B6813B90C4A0B4B1A600A4B1A68C31C08
:103D900023F00303134409498B4206D90FF024FA98
:103DA0000C2303604FF0FF3008BD02490B60104642
:103DB00008BD00BF2001002060E5012000FC0120BB
:103DC00001230360014B0B60704700BF040000201B
:103DD00000B583B00C46194613460AB1064A00E006
:103DE000064A03B9054B0193009223460246044854
:103DF00000F012F8FFF7B8FF38680108CC68010836
:103E00004868010808B50A460146024800F004F86F
:103E1000FFF7AAFF786801080FB400B583B004ABC0
:103E200053F8042B01938021064810F011FC002860
:103E300003DD0146034800F049F803B05DF804EBE8
:103E400004B070472801002010B5044610F0B8FAFD
:103E50000146204600F03AF80121024800F036F809
:103E600010BD00BF686901082DE9F04385B0044624
:103E70000F46435613BB042528462146ABBE0446D5
:103E80001FE03546102E28BF1025002306E014F948
:103E9000011B04AA1A4402F8101C0133AB42F6D3EA
:103EA00004AA1344002203F8102CE9464FF004083A
:103EB00040464946ABBE8046761B00E00E46002ECB
:103EC000DFD1384605B0BDE8F08300BF08B5FFF785
:103ED000CBFF08BD08B500F097F8054B054A9A607E
:103EE000D3F8882042F47002C3F8882008BD00BFD0
:103EF00000ED00E000000008F8B504460D46174646
:103F00001E462648FFF788FF21682548FFF784FFF3
:103F100061682448FFF780FFA1682348FFF77CFF12
:103F2000E1682248FFF778FF21692148FFF774FF15
:103F300061692048FFF770FFA1691F48FFF76CFF18
:103F4000E1691E48FFF768FF1D48FFF765FF294636
:103F50001C48FFF761FF1C4CE16A1C48FFF75CFF3F
:103F6000216B1B48FFF758FFE16B1A48FFF754FF1E
:103F700015F0800F03D039461748FFF74DFF15F4B1
:103F8000004F03D031461548FFF746FF1448FFF7AE
:103F900043FF06991348FFF73FFFF8BDD0680108BB
:103FA000E0680108F068010800690108106901086B
:103FB0002069010830690108406901085069010859
:103FC000606901086C69010800ED00E07C69010886
:103FD0008C6901089C690108AC690108BC69010889
:103FE000CC690108D469010883691A888A4207D11B
:103FF0000268033A012A05D8023383610120704721
:1040000000207047002070470F49D1F8883043F4F2
:104010007003C1F888300D4B1A6842F001021A6033
:10402000002098601A6822F0847222F480321A60AC
:10403000074A5A601A6822F480221A60D8604FF04A
:1040400000638B60704700BF00ED00E00038024065
:1040500010300024224B9B6803F00C03042B07D084
:10406000082B09D0002B2DD11E4A1F4B1A602CE0C3
:104070001E4A1D4B1A6028E0194B5A685B6803F012
:104080003F0312F4800F09D0184AB2FBF3F2144B2D
:104090005B68C3F3881303FB02F208E0114AB2FB2A
:1040A000F3F30F4A5168C1F3881101FB03F20C4B83
:1040B0005B68C3F3014301335B00B2FBF3F30A4ACD
:1040C000136002E0074A084B1A60054B9B68C3F374
:1040D0000313074AD15C044A1368CB40136070474E
:1040E000003802400024F4000C00002000127A0086
:1040F000186A010830B589B00546002301931B4BAF
:104100001A6C42F010021A641B6C03F01003019346
:10411000019B02A903A8FDF7F1FE069B13B9FDF769
:10412000BDFE02E0FDF7BAFE4000114BA3FB0030DC
:10413000800C01380F4C104B236040F2E733E360F2
:10414000606000222261A26029463620FCF7CCF98B
:104150003620FCF70BFA2046FEF734FE18B920464D
:10416000FEF792FC00E0012009B030BD00380240AB
:1041700083DE1B43A0DF01200010004010B5044681
:104180000268074B9A4201D1FCF774F92268054B8B
:104190009A4203D100212046FFF716F910BD00BF57
:1041A000001000400000014008B50248FEF7C2FCC4
:1041B00008BD00BFA0DF01202DE9F8432DED028BE3
:1041C000804689469FED248B00680EF0B9FCB0EE66
:1041D000481AF0EE681A41EC100B0CF0B9FF57ECDE
:1041E000106BD8F804000EF0ABFCB0EE481AF0EEFD
:1041F000681A41EC100B0CF0ABFF55EC104B22464B
:104200002B46304639460EF03DFB41EC100B0DF0CD
:104210003BF951EC100B0EF097FF07EE900AF5EE0C
:10422000407AF1EE10FA10D098ED027AC7EE276AC4
:1042300016EE900A0EF084FC41EC100B0CF010FD11
:1042400051EC100B0EF080FF00E00548C9F80000AB
:10425000BDEC028BBDE8F8830000000000000040C8
:10426000DB0FC93F10B50C46D0ED007AF5EE407A71
:10427000F1EE10FA10D090ED017AC7EE876A16EED3
:10428000900A0EF05DFC41EC100B0CF0E9FC51ECD7
:10429000100B0EF059FF00E00148206010BD00BF78
:1042A000DB0FC93F08B50948094B03604FF41653AB
:1042B000436000238360C36003610C234361FFF705
:1042C0009BFCC820FCF7E4F808BD00BF18E0012003
:1042D0000010014008B50248FEF72CFC08BD00BFE5
:1042E000DCDF012030B589B01A4C1B4B23604F2313
:1042F00063600025A5604FF44873E36025610138D1
:1043000060612046FEF7D4FD602301934FF4C8732B
:10431000029303950495042305934FF48073069349
:104320004FF4007307932A4601A92046FEF782FE48
:104330000720FCF7BBF82A4629461920FCF7D4F8D9
:104340001920FCF713F929462046FEF7E7FF09B0CC
:1043500030BD00BFDCDF0120000001402DE9F0434B
:1043600091B0002400944B4B1A6B42F001021A6387
:104370001A6B02F001020092009A01941A6B42F04B
:1043800002021A631A6B02F002020192019A02946D
:104390001A6B42F004021A631A6B02F004020292D2
:1043A000029A03941A6B42F008021A631A6B02F025
:1043B00008020392039A04945A6C42F001025A6470
:1043C0005A6C02F001020492049A05941A6B42F0AE
:1043D00002021A631B6B03F002030593059B012580
:1043E0000A95022307934FF400520692089409930A
:1043F000294E06A93046FCF7F7FA4FF480430B9399
:104400000C950D940E950BA93046FCF7EDFA40275C
:104410000B970C950D940E9506F580660BA930460A
:10442000FCF7E2FA4FF48079CDF82C900C950D94BE
:104430000E950BA93046FCF7D7FA4FF40078CDF86B
:104440002C800C950D940E950BA93046FCF7CCFAF8
:104450000B970C950D940E950BA93046FCF7C4FAFA
:10446000C820FCF715F8224639463046FCF74EFCCA
:10447000224649463046FCF749FC2A46414630462A
:10448000FCF744FC2A4639463046FCF73FFC11B0A5
:10449000BDE8F08300380240000402400268164B79
:1044A0009A4228D100B589B00022019203F59C33CD
:1044B000596C41F001015964596C01F001010191FD
:1044C00001990292196B41F0020119631B6B03F011
:1044D00002030293029B01230793022304934FF4E8
:1044E000805103910592069303A90448FCF77CFAD6
:1044F00009B05DF804FB7047000001400004024071
:10450000F0B52DED028B8FB006460F4600230A93BF
:104510000B930C930D939FED298A8DED078A8DEDFA
:10452000088A8DED098A8DED048A8DED058A8DED61
:10453000068A00930193029303930BF0DBFD204D59
:1045400005F130030FCB8DE80F0095ED097AF2EEFF
:10455000047A77EEC77ACDED077AD5ED0A7A38EE90
:10456000678A8DED088AD5ED0B7AF1EE677ACDED8D
:10457000097A0BF0F3FD07A9084608F063F80AA9C9
:10458000684608F06DF804AC22460AA907A808F0AE
:1045900015F90BF0AFFD0B4B94E8070083E807001B
:1045A0000BF0DCFD39462046FFF706FE314620467B
:1045B000FFF758FE0FB0BDEC028BF0BD000000000D
:1045C000F0E40120D8E4012000B52DED028B83B08A
:1045D00090ED008AB5EEC08AF1EE10FA06DB0122FA
:1045E0004FF480411848FCF791FB05E000224FF49E
:1045F00080411548FCF78AFB18EE100A0EF0A0FA6D
:104600000FA3D3E900230EF019FC00220F4B0EF08C
:10461000EBFA0EF099FD00EE100A0CF0DFFCFDEE57
:10462000C07ACDED017A17EE901A0948FFF7F4FB36
:104630000198FFF757FE03B0BDEC028B5DF804FB59
:10464000182D4454FB211940000402400000694029
:10465000286A010800B583B0D0ED007A91ED007AA8
:1046600077EEC77A02A860ED017AFFF7ADFF03B0DD
:104670005DF804FB00B583B000680EF061FA0246F5
:104680000B46084968460FF0FBFC68460FF098FEA1
:10469000FF2382B269460448FFF7F2FA03B05DF8DF
:1046A00004FB00BF346A010818E0012000B585B0A2
:1046B0000023039302930BF01DFD0E4B5B680193E7
:1046C0000BF04CFD02A903A8FFF71AFF02A8FFF7A1
:1046D000D1FF01A903A8FFF7BDFF0BF00BFD064BAF
:1046E000039A5A60029A1A600BF038FD05B05DF823
:1046F00004FB00BF64E40120D0E4012008B5FFF70B
:10470000D1FDFFF72BFE08BD00B583B01D4B9B7993
:10471000032B10D11C4B1B685BB91C4B009302A9E7
:10472000002341F8043D6846FFF794FF0122164B31
:104730001A60FFF7BBFF134B9B79042B0CD1144B72
:104740001B683BB9012220211248FCF7DFFA012245
:104750000F4B1A60FFF7AAFF0A4B9B79052BD5D1A7
:104760000D4B1B6843B902A80C4B40F8043DFFF702
:1047700081FF0122084B1A60002220210548FCF726
:10478000C5FAC3E778E40120AC01002000006041D5
:10479000B001002000080240A8010020DB0FC93F43
:1047A00030B52DED028BA9B00023ADF89830ADF8EF
:1047B0009A30ADF89C30ADF89030ADF89230ADF84D
:1047C0009430ADF88830ADF88A30ADF88C300023E5
:1047D0001F93209321931C931D931E9319931A9357
:1047E0001B9324A926A809F0BBFD0546002840F02C
:1047F0002A8122A809F0E0FD0546002840F0238127
:104800001FA926A809F00CFE1CA924A809F074FE13
:1048100019A922A809F0C4FE0BF06CFCFBF732FECC
:1048200007EE900AB8EE677ADFED897A87EE278A7D
:10483000884B83ED028A002320E0980028AA1118F3
:1048400051F8244C844A1044046003F1080483485E
:1048500000EB840090ED007A51ED0C7A77EEC77A88
:1048600041ED0C7A981C02EB8000C0ED017A51F802
:104870003C1C981D02EB800211600133022BDCDD31
:104880000BF06CFC002415941694179418940BF0FC
:1048900031FC734BD3ED027A38EE678A0BF05EFC85
:1048A000B7EE005AF0EE484A9DED1B4ADDED1A3A8C
:1048B0009DED193ADDED212A9DED202ADDED1F1A2F
:1048C0009DED1E1ADDED1D0A9DED1C0A15A807F0D1
:1048D00057F90BF00FFC634B159A1A63169A5A633B
:1048E000179A9A63189ADA630BF038FC0023129334
:1048F000139314930F931093119312AA15A91FA841
:1049000007F05CFF0FAA15A919A807F057FF0BF0D5
:10491000F1FB234610E003F10A01504A02EB810249
:1049200092ED017A28AA02EB830252ED167A77EE15
:10493000C77A42ED167A0133022BECDD494B129A0D
:104940001A60139A5A60149A9A600F9ADA60109A51
:104950001A61119A5A610BF001FC3E4B9B79012BB5
:1049600071D9002300930193029303930493059359
:1049700006930793089309930A930B930C930D9353
:104980000E930BF0B7FB002013E0374C8300E218C6
:10499000126828A90B4443F8882C811D8A003149EC
:1049A0001144096843F87C1C2244126843F8702CB7
:1049B00001300228E9DD0BF0D1FB00221DE028AB1D
:1049C00003EB820353ED167A13ED227A37EE877AE2
:1049D00028EE077AF6EE006A27EE267A03ED287AAB
:1049E00013ED1F7A53ED1C7A77EE277A68EE277A5B
:1049F00067EEA67A43ED257A0132022ADFDD0BF05D
:104A000079FB00231BE028AA02EB830010ED287A33
:104A1000144A991D02EB8101D1ED007A77EE877A75
:104A2000C1ED007A10ED257A03F1080102EB810255
:104A3000D2ED017A77EE877AC2ED017A0133022B4B
:104A4000E1DD0BF08BFB284629B0BDEC028B30BDBD
:104A500000007A4478E4012030E5012020E40120C0
:104A600058E40120F0E4012090E4012070B588B002
:104A70000546002426462CE00023ADF80430ADF8AE
:104A80000630ADF80830ADF80C30ADF80E30ADF8AA
:104A90001030002305930693079303A901A809F09A
:104AA0005FFCC6B236BB05A903A809F025FD0022AC
:104AB0000CE09300E91808A8034413ED037AD1ED44
:104AC000007A77EE877AC1ED007A0132022AF0DDB2
:104AD0000134C72CD0DD00230AE005EB8302D2EDC0
:104AE000006A9FED067AC6EE877AC2ED007A01333E
:104AF000022BF2DD304608B070BD00BF0000484315
:104B00002DE9F0412DED028B92B007460E46FBF7E2
:104B1000B9FC07EE900AB8EE677ADFED497AC7EE86
:104B2000278A0025A84673E00023ADF80430ADF8CD
:104B30000630ADF80830ADF80C30ADF80E30ADF8F9
:104B400010300023059306930793089309930A9363
:104B50000B930C930D9303A901A809F001FC5FFAD4
:104B600080F8B8F1000F64D10BA903A809F0C4FCC8
:104B700005A901A809F054FCFBF784FC07EE900A94
:104B8000B8EE677ADFED2E7A87EE278A00220CE0F6
:104B90009300F91891ED007A12A90B4453ED077AAE
:104BA00077EEC77A43ED077A0132022AF0DD00245E
:104BB0000E940F9410941194DFED223A38EE683A77
:104BC000DDED072A9DED062ADDED051A9DED0D1A96
:104BD000DDED0C0A9DED0B0A0EA806F009FE08AAF1
:104BE0000EA905A807F0EAFD23460CE09A00B118CB
:104BF00012A8024412ED0A7AD1ED007A77EE877A94
:104C0000C1ED007A0133022BF0DD0135F0EE488A68
:104C1000632D89DD00230AE006EB8302D2ED006AF2
:104C20009FED097AC6EE877AC2ED007A0133022B36
:104C3000F2DD404612B0BDEC028BBDE8F08100BF52
:104C400000007A44022B073D0000C84210B586B030
:104C5000002303930493059300930193029303A805
:104C6000FFF704FF694603A8FFF74AFF0BF042FA7B
:104C7000002312E006AA02EB830050F80C4C0A4A0B
:104C800003F1080102EB81010C6050F8181C03F1DC
:104C90000A0002EB800251600133022BEADD0BF0C7
:104CA0005DFA06B010BD00BF20E401200000000046
:104CB00010B52DED028B86B00023059304930023DD
:104CC0000393029304AA05A9214B186809F00CFD6F
:104CD000204B186802AB009303AB049A059909F0C6
:104CE0002BFD0BF007FA1C4B93ED008A0BF036FA04
:104CF000DDED037A88EE277A17EE100A0DF020FF1B
:104D000041EC100B0CF09AF90FA3D3E9002351ECFE
:104D1000100B0DF069FF0EF017FA04460BF0EAF9DC
:104D20000E4B059A5A60049A1A600D4B039A5A600A
:104D3000029A1A609C600BF011FA06B0BDEC028B6F
:104D400010BD00BFAFF300806666666666663240DF
:104D5000F8E00120A0E0012020E4012054E501203A
:104D600084E4012038B50BF0C5F90F4C0F4D0FCD81
:104D70000FC40FCD0FC40FCD0FC495E80F0084E80A
:104D80000F000B4B0B4A07CA83E807000A4B0B4A7C
:104D900007CA83E807000A4C0A4D0FCD0FC42B68E1
:104DA00023600BF0DBF938BD90E40120F0E4012032
:104DB00014E4012084E4012058E4012078E4012077
:104DC00064E40120D0E40120F0B583B0164C204605
:104DD00009F03CFAC5B229461448FFF71DF8EE2148
:104DE000204609F01FFC124C206003268DF8046059
:104DF00002238DF8053000238DF8063004238DF84A
:104E000007300DEB030109F023FC0746314620680B
:104E100009F058FC206809F053FC064B1860064B5B
:104E20001D705F7003B0F0BDA4E00120386A010876
:104E3000F8E00120A0E0012078E4012008B5434B10
:104E40009B79012B3DD1424B1B78002B33D142F291
:104E500010700BF059FEFFF7F9FEFFF729FFFFF77F
:104E60009FFCFFF77FFF0BF045F93A4B5A683A4B2E
:104E70001A60002309E0394A02EB83021168181D09
:104E8000354A02EB800251600133022BF3DD00232F
:104E90000AE003F10C01324A02EB810211682E4A4A
:104EA00002EB830251600133032BF2DD0BF056F964
:104EB0000122274B1A70FFF7FBFEFFF771FCFFF78B
:104EC00051FF224B9B79022B20D1FFF7F1FEFFF718
:104ED00067FCFFF747FF0BF00DF91E4B93ED017ACE
:104EE000204BD3ED017AB4EEE77AF1EE10FA03DD50
:104EF0001D4B1B68013300E000231B4A1360052B88
:104F000002D10322114B9A710BF028F90F4B9B79B8
:104F1000032B05D1FFF7CCFEFFF742FCFFF722FF82
:104F20000A4B9B79042B05D1FFF7C2FEFFF738FC33
:104F3000FFF718FF054B9B79052B80D1FFF7B8FED3
:104F4000FFF72EFCFFF70EFF79E700BF78E40120A2
:104F5000B401002084E4012020E40120E4E40120E5
:104F6000F0E4012014E40120B80100202DE9F04F05
:104F70002DED028BADF5737DFBF784FA07EE900AF9
:104F8000B8EE677ADFEDB07A87EE278A0BF0B2F8D9
:104F9000AE4B1F685C680BF0E1F8AD4B1E78AD4B73
:104FA0001D7811AB119712948DED138AACAC93E878
:104FB000070084E8070000236FF064028DF8AD223B
:104FC0008DF8AE328DF8AF32A34B1B7B03F002039A
:104FD00003F0FF0043B9A04B1B693BB11B7813F0F2
:104FE000010F05D1002404E0002402E0002400E0C9
:104FF000012428B1FE238DF8A6320623029304E093
:10500000FD238DF8A6320A23029358B90C2301E040
:10501000013BDBB2012B06D95A1EACA98A56002AE5
:10502000F6D000E00C238DF8A7328DF8AB628DF836
:10503000AC5200238DF8A83214B101238DF8A832A8
:1050400000238DF8A932844A93798DF8AA3201336E
:1050500093719DF8A6328DF838309DF8A7328DF8FF
:10506000393088B19DF8AA328DF83A309DF8AB32CC
:105070008DF83B309DF8AC328DF83C30AB9BC3F3E0
:1050800017238DF83D301EE09DF8A8328DF83A3098
:105090009DF8A9328DF83B309DF8AA328DF83C304E
:1050A0009DF8AB328DF83D309DF8AC328DF83E3036
:1050B000AB9BC3F317238DF83F301A128DF84020B5
:1050C0001B148DF84130029B5A1E92B24FF6FF71AD
:1050D0000DF139050EE02A78CBB2534083EA031371
:1050E000DBB2090A41EA032181EAC30181EA131113
:1050F00002460135531E98B2002AECD1ADF8A41235
:105100009DF8A752ABB2ACA812E00678BDF8A43265
:10511000DAB2724082EA0212D2B21B0A43EA0223D6
:1051200083EAC20383EA1213ADF8A4320B460130BE
:105130005A1E91B2002BE8D1BDF8A422D3B283F05D
:105140009F0383EA0313D9B2130A43EA012383EAD4
:10515000C10383EA1113ADF8A432ACA94B559DF8F5
:10516000A7320133BDF8A422120ACA54002C00F061
:105170009085394B19699DF8A7320B93ACAA02EBC5
:105180000308002900F085850B7813F0010F00F06B
:1051900080854B788DF8BA33D1E90223F2AC64E90B
:1051A000E6232068CDF8BB03A388ADF8BF33D1E96F
:1051B0000223013243F10003C1E9022300233793A4
:1051C000264B3893264B3993264B3A93264B3B93E9
:1051D000264B3C93264B3D93264B3E9303F1745351
:1051E000A3F52303A3F692433F9301F11003019328
:1051F0004FF48073369300252026DBE0C5F1400490
:10520000B44200D934462246019F394640AB581972
:105210000EF000F825443B4623440193361B402DF5
:1052200040F0C88028E0930040A8C11824AC234473
:10523000CD7804F822508C785C704978997010F819
:105240002210D970013218E000007A44D0E4012025
:105250001400002011000020F401002067E6096A14
:1052600085AE67BB72F36E3C3AF54FA57F520E5187
:105270008C68059BABD9831F00220F2AD3DD389B96
:105280000393399B04933A9B05933B9B06933C9B6A
:1052900007933D9B08933E9B09933F9B0A930023F2
:1052A00009E0F2AA02EB8302A2F54E72116850AA3D
:1052B00042F8231001330F2BF3DD102020E0831E72
:1052C00050A951F823204FEAF24383EA724383EA5C
:1052D0009223C21F51F822401C44A0F10F0351F841
:1052E00023304FEAB34282EAF31282EAD303234423
:1052F000A0F1100251F82220134441F8203001306F
:105300003F28DCDD0A98DDF82490DDF820A0079C1A
:10531000DDF818B0DDF814E0DDF810C0039D0027BB
:105320002DE04FEAF42383EAB41383EA7463034461
:1053300004EA0A0129EA04024A401344B74A52F82F
:105340002720134450AA52F8272013444FEA7532FD
:1053500082EAB50282EAB55005EA0C0105EA0E02BE
:105360004A400CEA0E014A40024401374846D14601
:10537000A24603EB0B04F346E646AC469D183F2FCE
:10538000CFDD039B2B443893049B63443993059BE7
:1053900073443A93069B5B443B93079B23443C93A3
:1053A000089B53443D93099B4B443E930A9B034403
:1053B0003F930025002E7FF421AF029B1E46369DB1
:1053C00005EBC30336939D4202D9379B01333793D4
:1053D000C5F3C5050EAB0193C3E0C5F14004B4426B
:1053E00000D934462246019F394640AB58190DF08A
:1053F00011FF25443B4623440193361B402D40F0CA
:10540000B08010E0930040A8C11824AC2344CD78AC
:1054100004F822508C785C704978997010F822104A
:10542000D970013200E000220F2AEBDD389B029395
:10543000399B03933A9B04933B9B05933C9B0693B8
:105440003D9B07933E9B08933F9B0993002309E0F4
:10545000F2AA02EB8302A2F54E72116850AA42F83A
:10546000231001330F2BF3DD102020E0831E50A901
:1054700051F823204FEAF24383EA724383EA9223EE
:10548000C21F51F822401C44A0F10F0351F82330F1
:105490004FEAB34282EAF31282EAD3032344A0F133
:1054A000100251F82220134441F8203001303F28E7
:1054B000DCDD0998DDF82090DDF81CA0069CDDF805
:1054C00014B0DDF810E0DDF80CC0029D00272DE0DF
:1054D0004FEAF42383EAB41383EA7463034404EACF
:1054E0000A0129EA04024A4013444C4A52F8272090
:1054F000134450AA52F8272013444FEA753282EA27
:10550000B50282EAB55005EA0C0105EA0E024A40EE
:105510000CEA0E014A40024401374846D146A246F1
:1055200003EB0B04F346E646AC469D183F2FCFDD58
:10553000029B2B443893039B63443993049B73442D
:105540003A93059B5B443B93069B23443C93079B08
:1055500053443D93089B4B443E93099B03443F9324
:105560000025002E7FF439AF0B9B1E46369D05EBC0
:10557000C30336939D4202D9379B01333793C5F35A
:10558000C505ACAB0193C6E0C5F14004B44200D9F7
:1055900034462246019F394640AB58190DF03AFE79
:1055A00025443B4623440193361B402D40F0B380F5
:1055B00010E0930040A8C11824AC2344CD7804F82F
:1055C00022508C785C704978997010F82210D9704C
:1055D000013200E000220F2AEBDD389B0293399B59
:1055E00003933A9B04933B9B05933C9B06933D9B03
:1055F00007933E9B08933F9B0993002309E0F2AA7F
:1056000002EB8302A2F54E72116850AA42F82310F1
:1056100001330F2BF3DD102023E000BF446A0108A3
:10562000831E50A951F823204FEAF24383EA7243C4
:1056300083EA9223C21F51F822401C44A0F10F03B9
:1056400051F823304FEAB34282EAF31282EAD303DD
:105650002344A0F1100251F82220134441F82030D5
:1056600001303F28DCDD0998DDF82090DDF81CA032
:10567000069CDDF814B0DDF810E0DDF80CC0029DEA
:1056800000272DE04FEAF42383EAB41383EA74631E
:10569000034404EA0A0129EA04024A401344B24AD4
:1056A00052F82720134450AA52F8272013444FEAF7
:1056B000753282EAB50282EAB55005EA0C0105EAC4
:1056C0000E024A400CEA0E014A40024401374846A5
:1056D000D146A24603EB0B04F346E646AC469D18C2
:1056E0003F2FCFDD029B2B443893039B63443993B8
:1056F000049B73443A93059B5B443B93069B234472
:105700003C93079B53443D93089B4B443E93099B1A
:1057100003443F930025002E7FF436AF369D05F1FC
:10572000100336939D4202D9379B01333793C5F35B
:10573000C5050226C0E0C5F14004B44200D9344694
:105740002246414640AB58190DF064FD2544A04463
:10575000361B402D40F0B08010E0930040A8C118E7
:1057600024AC2344CD7804F822508C785C704978BE
:10577000997010F82210D970013200E000220F2A2F
:10578000EBDD389B0193399B02933A9B03933B9B40
:1057900004933C9B05933D9B06933E9B07933F9B45
:1057A0000893002309E0F2AA02EB8302A2F54E72ED
:1057B000116850AA42F8231001330F2BF3DD10209B
:1057C00020E0831E50A951F823204FEAF24383EAD8
:1057D000724383EA9223C21F51F822401C44A0F175
:1057E0000F0351F823304FEAB34282EAF31282EA00
:1057F000D3032344A0F1100251F82220134441F8AE
:10580000203001303F28DCDD0898DDF81C90DDF801
:1058100018A0059CDDF810B0DDF80CE0DDF808C03C
:10582000019D00272DE04FEAF42383EAB41383EAB5
:105830007463034404EA0A0129EA04024A40134457
:10584000494A52F82720134450AA52F827201344FB
:105850004FEA753282EAB50282EAB55005EA0C01D8
:1058600005EA0E024A400CEA0E014A4002440137A2
:105870004846D146A24603EB0B04F346E646AC4647
:105880009D183F2FCFDD019B2B443893029B63442F
:105890003993039B73443A93049B5B443B93059B6E
:1058A00023443C93069B53443D93079B4B443E93B8
:1058B000089B03443F930025002E7FF43CAF369DA8
:1058C00005F1380336939D4202D9379B0133379354
:1058D000C5F3C5050DF2BA380726C2E0C5F140048C
:1058E000B44200D934462246414640AB58190DF027
:1058F00091FC2544A044361B402D40F0B28010E0BE
:10590000930040A8C11824AC2344CD7804F8225059
:105910008C785C704978997010F82210D970013237
:1059200000E000220F2AEBDD389B0193399B0293A4
:105930003A9B03933B9B04933C9B05933D9B0693AF
:105940003E9B07933F9B0893002309E0F2AA02EBDA
:105950008302A2F54E72116850AA42F82310013357
:105960000F2BF3DD102022E0446A0108831E50A9AA
:1059700051F823204FEAF24383EA724383EA9223E9
:10598000C21F51F822401C44A0F10F0351F82330EC
:105990004FEAB34282EAF31282EAD3032344A0F12E
:1059A000100251F82220134441F8203001303F28E2
:1059B000DCDD0898DDF81C90DDF818A0059CDDF80A
:1059C00010B0DDF80CE0DDF808C0019D00272DE0E7
:1059D0004FEAF42383EAB41383EA7463034404EACA
:1059E0000A0129EA04024A401344BE4A52F8272019
:1059F000134450AA52F8272013444FEA753282EA22
:105A0000B50282EAB55005EA0C0105EA0E024A40E9
:105A10000CEA0E014A40024401374846D146A246EC
:105A200003EB0B04F346E646AC469D183F2FCFDD53
:105A3000019B2B443893029B63443993039B73442B
:105A40003A93049B5B443B93059B23443C93069B06
:105A500053443D93079B4B443E93089B03443F9321
:105A60000025002E7FF43AAF369BC3F3C504C4F182
:105A7000770404F03F04671C24AE80238DF8903037
:105A8000472200210DF191000DF05EFC04F10803A6
:105A9000369DF554E31D2A0AF254A31D2A0CF25434
:105AA000631D2A0EF254221D379BB354E21C190ABF
:105AB000B154A21C190CB1541B0EF35504F1090684
:105AC00005EBC60336939D4202D9379B01333793CA
:105AD000C5F3C5050DF19008C0E0C5F14004B4421E
:105AE00000D934462246414640AB58190DF092FB8E
:105AF0002544A044361B402D40F0B08010E09300B8
